S00F000044413254315F432E7372656337
S11300000C9434000C943E000C943E000C943E007E
S11300100C943E000C943E000C943E000C943E0064
S11300200C943E000C943E000C943E000C943E0054
S11300300C943E000C943E000C943E000C943E0044
S11300400C943E000C943E000C943E000C943E0034
S11300500C943E000C943E000C943E000C943E0024
S11300600C943E000C943E0011241FBECFEFD8E048
S1130070DEBFCDBF0E9440000C9450000C940000E1
S113008082E084B994E085B1892785B92FE936E8FF
S113009081E0215030408040E1F700C00000F3CF00
S10700A0F894FFCFFE
S9030000FC
