S00F000044413254335F432E7372656335
S11300000C9434000C943E000C943E000C943E007E
S11300100C943E000C943E000C943E000C943E0064
S11300200C943E000C943E000C943E000C943E0054
S11300300C943E000C943E000C943E000C943E0044
S11300400C943E000C943E000C943E000C943E0034
S11300500C943E000C943E000C943E000C943E0024
S11300600C943E000C943E0011241FBECFEFD8E048
S1130070DEBFCDBF0E9440000C9460000C940000D1
S1130080229A2A9885B58D6085BD84B5806484BD27
S113009016BC83EF87BD2A9A2FEF89E698E1215099
S11300A080409040E1F700C000002A982FEF89E6D5
S11300B098E1215080409040E1F700C00000EBCF70
S10700C0F894FFCFDE
S9030000FC
