S00F000044413254345F432E7372656334
S11300000C9434000C943E000C943E000C943E007E
S11300100C943E000C943E000C943E000C943E0064
S11300200C943E000C943E000C943E000C943E0054
S11300300C943E000C943E000C943E000C943E0044
S11300400C944B000C943E000C943E000C943E0027
S11300500C943E000C943E000C943E000C943E0024
S11300600C943E000C943E0011241FBECFEFD8E048
S1130070DEBFCDBF0E9440000C9460000C940000D1
S1130080229A8CE086BD14BC85E085BD81E0809316
S11300906E007894FFCF1F920F920FB60F92112427
S11300A08F939F938CE086BD95B184E0892785B9B1
S11300B0A89A9F918F910F900FBE0F901F90189543
S10700C0F894FFCFDE
S9030000FC
