S00F000044413254355F432E7372656333
S11300000C9434000C9447000C943E000C943E0075
S11300100C943E000C943E000C943E000C943E0064
S11300200C943E000C943E000C943E000C943E0054
S11300300C943E000C943E000C943E000C943E0044
S11300400C943E000C943E000C943E000C943E0034
S11300500C943E000C943E000C943E000C943E0024
S11300600C943E000C943E0011241FBECFEFD8E048
S1130070DEBFCDBF0E9440000C946A000C940000C7
S113008084E084B98BB981E08DBB7894FFCF1F9253
S11300900F920FB60F9211242F933F938F939F9338
S11300A095B184E0982795B92FE33DE093E0215082
S11300B030409040E1F700C0000095B1892785B930
S11300C0E09A9F918F913F912F910F900FBE0F90C7
S10B00D01F901895F894FFCF6E
S9030000FC
